:020000040800F2
:10000000D005002001010008031D0008051A0008A2
:10001000011D00086D010008E12400080000000037
:10002000000000000000000000000000491D000862
:10003000FD01000800000000051D0008191E000851
:100040001B0100081B0100081B0100081B01000820
:100050001B0100081B0100081B0100081B01000810
:100060001B0100081B0100081B0100081B01000800
:100070001B0100081B0100081B0100081B010008F0
:10008000710100087D0100081B0100081B01000828
:100090001B0100081B0100081B0100081B010008D0
:1000A0001B0100081B0100081B0100081B010008C0
:1000B0007D1E00081B0100081B0100081B01000831
:1000C0001B0100081B0100081B0100081B010008A0
:1000D0001B0100081B010008992400081B010008EF
:1000E0001B0100081B0100081B010008DFF80CD0F1
:1000F00000F02AF80048004721250008D00500201C
:100100000648804706480047FEE7FEE7FEE7FEE7B1
:10011000FEE7FEE7FEE7FEE7FEE7FEE7791E0008E2
:10012000ED000008D2B201E000F8012B491EFBD21D
:1001300070470022F6E710B513460A4604461946F2
:10014000FFF7F0FF204610BD064C074D06E0E068C3
:1001500040F0010394E8070098471034AC42F6D30E
:10016000FFF7C8FF4427000864270008FEE70000E7
:10017000014800F0B5B8000048010020014800F037
:10018000AFB800008C01002030B590F84050012439
:10019000AC40C56B6C60046863604368102B0368F7
:1001A00003D099600068C26030BD9A600068C16089
:1001B00030BD00000A4610B50146054801F0E2FBDB
:1001C000002803D0BDE8104000F019B810BD0000B1
:1001D000000100200022084902E0521CD2B2491C52
:1001E0000B78082B02D0042AF7D970478A78092A9D
:1001F000FBD149780170704703000020704772B648
:10020000FEE710B590F821100022022905D0042144
:10021000816380F82020012010BD01680B6823F065
:100220000E030B6001680B6823F001030B6090F86C
:100230004030012404FA03F1C36B596080F8214077
:1002400080F82020104610BD10B590F82110002431
:10025000022903D00421816301243DE001680A687A
:1002600022F00E020A6001680A6822F001020A60A8
:100270001A4A0168914201D1012121E0174A143242
:10028000914201D110211BE0144A2832914201D140
:10029000891515E0114A3C32914201D189140FE0D1
:1002A0000E4A5032914202D14FF4803108E00B4A9D
:1002B0006432914202D14FF4801101E04FF080711D
:1002C000064A083A5160012180F82110002180F887
:1002D0002010416B01B18847204610BD0800024044
:1002E0002DE9F05FC16B0B6801680A68046C4FF080
:1002F000040C0CFA04FC4A4DDFF828A14A4E4B4F7F
:10030000DFF82CB1DFF82CE11CEA030F2DD05FEAF7
:10031000427C2AD50A68920603D40A6822F00402B5
:100320000A600168A94201D1042119E0514501D1B7
:10033000402115E0B14202D14FF4806110E0B94292
:1003400002D14FF480410BE0594502D14FF4802196
:1003500006E0714502D14FF4800101E04FF0806169
:100360002F4A083A5160C16A3BE04FF0020808FA90
:1003700004F818EA030F4FF000094FF0010C35D0D4
:100380005FEA827832D50A68920605D40A6822F0BC
:100390000A020A6080F821C00168A94201D1022145
:1003A00019E0514501D1202115E0B14202D14FF4AD
:1003B000007110E0B94202D14FF400510BE05945F1
:1003C00002D14FF4003106E0714502D14FF4001123
:1003D00001E04FF00071124A083A516080F8209015
:1003E000816A00291AD0BDE8F05F08470825A540BA
:1003F0001D4213D0120711D50A6822F00E020A60BE
:1004000090F84010C26B0CFA01F15160C0F838C08E
:1004100080F821C080F82090016BE2E7BDE8F09FF2
:10042000080002401C00024030000240440002402C
:10043000580002406C00024030B528B302C8134A8D
:1004400014230A44B2FBF3F29200C263104A82639F
:10045000022242770B6843F6F0729343D0E90024FE
:100460002243D0E902452C432243046922434469D4
:100470002243846922431A430A6000214163012216
:1004800042770177084630BD012030BDF8FFFDBF3F
:100490000000024070B5044690F8200000250128B5
:1004A0000CD0012084F8200094F821600020012E57
:1004B00006D084F820000225284670BD022070BDB9
:1004C000022684F82160A0632068066826F00106F1
:1004D00006602046FFF758FEE06A002820680168A1
:1004E00002D041F00E0106E021F004010160206815
:1004F000016841F00A0101602068016841F00101D2
:100500000160D9E72DE9F84FDFF8A4910024A9F1A3
:10051000040B23464FF00F0809F1040AABF1040E57
:10052000BEE00127A7403A40BA4272D1DFF884C149
:100530004D68A5EB0C0665452BD00DDC032D34D0A2
:1005400005DC35B3012D19D0022D2FD11BE0112D63
:1005500016D0122D2AD119E0B6F5881F19D006DC65
:10056000B6F5803F15D0B6F5801F1FD111E0B6F566
:10057000001F0ED0B6F5041F18D10AE0CB6815E0B5
:10058000CB681B1D12E0CB6808330FE0CB680C333F
:100590000CE08B682BB1012B4FF0080303D04761AF
:1005A00004E0042302E0076100E00023FF2A01D8F1
:1005B000064601E000F104064FEA840501D9A5F1E1
:1005C0002005376808FA05FC27EA0C0703FA05F549
:1005D00047EA050737604D68ED0060D5364DAE69D6
:1005E00046F00106AE61AD6924F0030605F0010591
:1005F0000095324D7719BE68A5072D0F08FA05FC46
:1006000026EA0C06DFF8B8C0604503D14FF0000CB5
:1006100017E044E0DFF8ACC0604502D14FF0010CB8
:100620000FE0DFF8A4C0604502D14FF0020C08E0F3
:10063000DFF898C0604502D14FF0030C01E04FF0A5
:10064000040C0CFA05FC4CEA060CC7F808C04D680F
:10065000D9F80060ED024D4601D5164300E09643FF
:100660002E604D68DAF80060AD02554601D516439C
:1006700000E096432E604D68DBF80060AD035D46F8
:1006800001D5164300E096432E604D68DEF8006009
:10069000ED03754601D5164300E096432E60641CB9
:1006A0000A6832FA04F57FF43CAFBDE8F88F000029
:1006B0000804014000001110001002400000014039
:1006C00000080140000C01400010014000140140EE
:1006D0000AB1016170470904FBE700000148806826
:1006E000704700000C000020024881680278114425
:1006F000816070470C000020074810B5016841F088
:1007000010010160032000F075F80F2000F006F8DA
:1007100000F024F8002010BD0020024070B50D4DFF
:1007200004464FF47A712878B1FBF0F00A49096861
:10073000B1FBF0F000F0DEFA48B9102C07D200222D
:100740002146501E00F036F800206C6070BD01207C
:1007500070BD00000C000020180000200C4808B5F7
:10076000816941F001018161816901F0010100911C
:10077000C16941F08051C161C069064900F08050F3
:100780000090486820F0E06040F00070486008BDCC
:100790000010024000000140002809DB00F01F02A9
:1007A000012191404009800000F1E020C0F80011D3
:1007B00070470000F0B40E4B1B68C3F30223C3F173
:1007C0000704042C00D904241D1D072D01D2002389
:1007D00000E0DB1E012606FA04F56D1E0D409D406B
:1007E0009E40761E164045EA0601F0BC01F079BE37
:1007F0000CED00E0064A00F0070110684FF6FF0319
:10080000184040EA01200349084310607047000087
:100810000CED00E00000FA052DE9F0470D4604005C
:1008200067D0DFF81881D8F8000000F00700A84270
:100830000CD2D8F8001021F007012943C8F80010A5
:10084000D8F8000000F00700A84252D120683C4EC2
:10085000810712D5400703D5706840F4E0607060EE
:100860002078000703D5706840F4605070607068AD
:10087000A16820F0F000084370602078C00727D0FE
:100880006068012810D03168022810D0890700293B
:100890002FDA716821F0030101437160FFF71EFF39
:1008A000074641F288390CE031688903EFE7890196
:1008B000EDE7FFF713FFC11B494502D90320BDE84F
:1008C000F0877068616800F00C00B0EB810FF0D128
:1008D000D8F80010404601F00701A9420BD9016881
:1008E00021F0070129430160006800F00700A842D9
:1008F00001D00120E3E72078400705D57068E16862
:1009000020F4E060084370602078000706D5706826
:10091000216920F4605040EAC100706000F038F8AE
:100920007168084AC1F30311515CC8400649086068
:1009300006480068FFF7F2FE0020C0E700200240F2
:10094000001002402A270008180000201000002094
:100950000448054900684968044AC1F30221515C12
:10096000C840704718000020001002403A270008D5
:100970000448054900684968044AC1F3C221515C32
:10098000C840704718000020001002403A270008B5
:100990000E4B59680E4801F00C02042A11D0082AA7
:1009A0000FD10C48C1F38342C903805C0AD5596852
:1009B000084AC1F34041921E515C054A5043B0FBC6
:1009C000F1F07047044948437047000000100240AE
:1009D00000127A001A27000800093D002DE9F84F9F
:1009E00004006FD02078BE4DC00747D06868C0F3C0
:1009F0008100012807D06868C0F38100022809D16E
:100A00006868C00306D52868800337D56068002869
:100A1000E7D033E06068B0F5803F0BD010B1B0F59F
:100A2000A02F11D0286820F480302860286820F496
:100A3000802002E0286840F480302860606888B137
:100A4000FFF74CFE064609E0286840F48020286045
:100A5000F0E7FFF743FE801B642873D82868800303
:100A6000F7D50BE0FFF73AFE064604E0FFF736FE47
:100A7000801B6428F1D828688003F7D42078DFF839
:100A8000648280074FF0010A4FF0000939D5686889
:100A900010F00C0F07D06868C0F38100022809D15C
:100AA0006868C00306D42868800714D52069012827
:100AB00008D110E02069B0B1C8F800A0FFF70EFE21
:100AC000064605E007E1FFF709FE801B0228C4D8AF
:100AD00028688007F7D52868616920F0F80040EAA7
:100AE000C10028600DE0C8F80090FFF7F7FD06464A
:100AF00004E0FFF7F3FD801B022823D82868800755
:100B0000F7D4207800072CD57748A169D9B1C0F86F
:100B100000A0FFF7E3FD064604E0FFF7DFFD801BC2
:100B200002280FD8686A8007F7D570484FF4FA5149
:100B30000068B0FBF1F0009000BF0098411E0091EA
:100B4000FAD20EE07CE0C0F80090FFF7C7FD064641
:100B500004E0FFF7C3FD801B022871D8686A800794
:100B6000F7D4207840075BD5E8690027C00008D497
:100B7000E86940F08050E861E869012700F08050A2
:100B800000905B480168C90511D40168834641F4AF
:100B900080710160FFF7A2FD064604E0FFF79EFDAD
:100BA000801B64284CD8DBF80000C005F6D5E0684F
:100BB00001280AD008B1052813D0286A20F00100C6
:100BC0002862286A20F0040002E0286A40F0010050
:100BD0002862E06841F2883B88B1FFF77FFD064656
:100BE00009E0286A40F004002862EEE7FFF776FD8E
:100BF000811B59455BD8286A8007F7D50BE0FFF7C2
:100C00006DFD064604E0FFF769FD811B59454ED88E
:100C1000286A8007F7D41FB1E86920F08050E861A6
:100C2000E069A8B36968C1F38101022946D00228AE
:100C3000484606D0C8F86000FFF750FD044639E08A
:100C400035E04746C8F86000FFF748FD064604E077
:100C5000FFF744FD801B022829D828688001F7D4BB
:100C6000206AB0F5803F05D16868A16820F40030A3
:100C700008436860D4E908010843696821F47411E5
:100C800008436860C7F860A0FFF728FD044605E048
:100C900023E0FFF723FD001B022808D82868800105
:100CA000F7D51AE0FFF71AFD001B022802D903202E
:100CB000BDE8F88F28688001F4D40EE00128F7D051
:100CC0006868226A00F48031914204D1616A00F4BC
:100CD0007010884201D00120EAE70020E8E7000018
:100CE00000100240000042428004424218000020EE
:100CF0000070004010B5401EB0F1807F01D301208C
:100D000010BD4FF0E02460610F21601701F0E9FB96
:100D10000020A06107202061002010BD70477047AF
:100D200010B590F83C20012A22D0012280F83C2006
:100D3000CA688C6822F4407222434C6822F48062B4
:100D400022430C6822F4006222430C6922F4805290
:100D500022434C6922F400522243C969002322F441
:100D600080420A4301684A6480F83C30002010BD8C
:100D7000022010BD70B590F83C20012A26D0012534
:100D800080F83C50022280F83D2002685368946845
:100D900023F070060B68334353600D4B02689A4290
:100DA00008D0B2F1804F05D00A4B9A4202D00A4BCC
:100DB0009A4204D1496824F080031943916080F875
:100DC0003D50002180F83C10084670BD022070BDE7
:100DD000002C0140000400400008004010B5040051
:100DE00003D094F83D0010B107E0012010BD0020B1
:100DF00084F83C00204600F01FF8022084F83D00F3
:100E0000211D206801F040F8012084F8460084F894
:100E10003E0084F83F0084F8400084F8410084F8E4
:100E2000420084F8430084F8440084F8450084F8C4
:100E30003D00002010BD000008B50068B0F1804FF3
:100E400012D10A48C16941F00101C161C0690022A3
:100E500000F00100009001211C20FFF7ABFCBDE871
:100E600008401C20FFF798BC08BD0000001002409D
:100E700090F83D10012901D001207047022180F82F
:100E80003D100168CA6842F00102CA6000680B495F
:100E9000884208D0B0F1804F05D00949884202D07D
:100EA0000849884204D1816801F00701062903D06E
:100EB000016841F00101016000207047002C0140F1
:100EC000000400400008004070B5044690F83C0063
:100ED0000025012817D0012684F83C60022084F800
:100EE0003D002068826822F0770222F47F4282600F
:100EF0000868502838D00DDC20284FD005DC90B38E
:100F0000102811D14AE0022070BD302846D0402878
:100F10000AD13BE060282FD070280DD0B0F5805F5B
:100F200003D0B0F5005F12D0012584F83D600020A9
:100F300084F83C00284670BDCB68D1E901212068C7
:100F400000F0EBFF2068816841F0770109E0CB6891
:100F5000D1E90121206800F0E0FF2068816841F4B8
:100F600080418160E1E719E0CA684968206801F0C2
:100F70008FF85021206806E0CA684968206801F0AF
:100F800098F86021206800F0D2FFCEE7CA6849686F
:100F9000206801F07DF840212068F4E722680146CE
:100FA0001046F0E770472DE9F04104460068C66836
:100FB00005694FF00007A90713D5B10711D5F91E30
:100FC000016101202077206880698007204602D0D7
:100FD000FFF7E8FF04E000F0B5F8204600F066F9FE
:100FE0002777680716D5700714D521686FF00400BD
:100FF0000861022020772068806910F4407F204635
:1010000002D0FFF7CFFF04E000F09CF8204600F08C
:101010004DF92777280715D5300713D521686FF0CC
:1010200008000861042020772068C06980072046F6
:1010300002D0FFF7B7FF04E000F084F8204600F08C
:1010400035F92777E80616D5F00614D521686FF034
:1010500010000861082020772068C06910F4407FE4
:10106000204602D0FFF79EFF04E000F06BF8204618
:1010700000F01CF92777E80708D0F00706D02168B0
:101080006FF001000861204600F09AF9280608D5A3
:10109000300606D521686FF0800008612046FFF712
:1010A0003DFE680608D5700606D521686FF0400041
:1010B0000861204600F046FAA8060AD5B00608D511
:1010C00021686FF0200008612046BDE8F041FFF77D
:1010D00026BEBDE8F081000010B586B00021009169
:1010E000019102910391134C0168134A02231348A2
:1010F000A1420AD1916941F004019161916901F025
:10110000040104914FF410610BE00D4CA1420ED18B
:10111000916941F004019161916901F00401049128
:10112000C021CDE9001369460393FFF7EBF906B040
:1011300010BD0000002C01400010024000080140DA
:1011400000040040704770B5044690F83C0000264B
:101150000D4601280FD0012084F83C006AB1042A12
:101160001DD0082A2FD00C2A3FD00126002084F859
:101170003C00304670BD022070BD206800F0E0FEEB
:101180002068816941F0080181612068816921F04E
:1011900004018161206881692A69114311E0206896
:1011A00000F0FAFE2068816941F4006181612068E5
:1011B000816921F480618161206881692A6941EA3D
:1011C00002218161D2E7206800F014FF2068C16924
:1011D00041F00801C1612068C16921F00401C161C9
:1011E0002068C1692A69114311E0206800F02EFFD0
:1011F0002068C16941F40061C1612068C16921F4BE
:101200008061C1612068C1692A6941EA0221C16126
:10121000ACE710B5040003D094F83D0010B107E02E
:10122000012010BD002084F83C00204600F01EF88C
:10123000022084F83D00211D206800F025FE0120D9
:1012400084F8460084F83E0084F83F0084F84000AB
:1012500084F8410084F8420084F8430084F8440094
:1012600084F8450084F83D00002010BD08B50068F2
:101270000B4A0C49904207D1886940F400608861AC
:10128000886900F4006009E0074A904207D1C86904
:1012900040F00200C861C86900F00200009008BD7B
:1012A000002C014000100240000400407047000084
:1012B00010B5044649B104290AD008290BD094F886
:1012C000410001280AD0012010BD94F83E00F8E743
:1012D00094F83F00F5E794F84000F2E7022041B3AC
:1012E000042929D008292AD084F841000122206845
:1012F00000F006FE13492068884203D1426C42F494
:10130000004242642068884208D0B0F1804F05D086
:101310000D49884202D00D49884204D1816801F00C
:101320000701062903D0016841F001010160002096
:1013300010BD84F83E00D9E784F83F00D6E784F872
:101340004000D3E7002C01400004004000080040AA
:1013500030B504460D460068002200F0D1FD174A62
:1013600041F2111120688B10904209D1026A0A42A1
:1013700006D1026A1A4203D1426C22F4004242644E
:101380002068026A0A4206D1016A194203D1016843
:1013900021F00101016001203DB1042D08D0082D8C
:1013A00009D084F84100002030BD84F83E00FAE7FF
:1013B00084F83F00F7E784F84000F4E7002C014090
:1013C0002DE9F05F5A4988427DD15A4D5A4C287810
:1013D0002178084315D16088401C6080012000F00E
:1013E000CDFC6088B0F5FA7F02D1012000F0EEFC60
:1013F0006088B0F52F6F04D1002000F0E7FC0020DA
:101400006080287808B1207818B12078012802D0AF
:1014100006E0012020706068401C606001F014F953
:10142000A14620780826454C0927DFF814814FF0A3
:10143000030A4FF0020B022837D1D9F80400401CF0
:10144000A0F5D851C9F80400583901D101F0F2F8DB
:10145000D9F80400B0F5FA5F08D1267084F801A02D
:10146000A77098F800103548FEF7A4FED9F80400DC
:1014700042F6F821884209D12A783AB13C2000F09E
:1014800065FC4FF47A61C9F804100EE088420CD173
:10149000287850B9267084F801B0A77098F8001029
:1014A0002648FEF787FE01F0A9F899F80010484693
:1014B000032928D14068401CA0F56851C9F80400F0
:1014C000983903D100E01EE001F0B4F8D9F8040027
:1014D000B0F57A5F08D1267084F801A0A77098F85B
:1014E00000101648FEF766FED9F8040044F63821CD
:1014F00088420AD12A7842B13C2000F027FC42F60B
:10150000E061C9F80410BDE8F09F8842FBD128785B
:101510000028F8D1267084F801B0A77098F8001060
:101520000648FEF747FEBDE8F05F01F067B800002F
:10153000700000201C000020200000200600002079
:10154000010000207047704710B5044600684069EC
:1015500094F84110C0F3C010212911D180B1206846
:10156000143050E8001F21F0800140E80012002AEA
:10157000F5D1A06B08B1FEF744FE204600F077FEDF
:101580002068406994F84210C0F38010222911D1DC
:1015900080B12068143050E8001F21F0400140E87D
:1015A0000012002AF5D1E06B08B1FEF72AFE2046B2
:1015B00000F036FE002010BD70470000F8B501684D
:1015C00004460868CA684B6910F00F0F4FF0000519
:1015D0005AD003F0010602F49077374365D0C10773
:1015E00005D0D10503D5616C41F00101616441076B
:1015F00005D5D90703D0616C41F002016164810710
:1016000005D5D90703D0616C41F00401616401077D
:1016100007D502F02001314303D0616C41F008018D
:101620006164616C00293BD0800604D5900602D528
:10163000204600F02AFE20684069616CC0F38010EB
:1016400001F00801014320462BD000F0E9FD20689D
:101650004069400621D52068143050E8001F21F071
:10166000400140E80012002AF5D1E06BA8B16D49B5
:101670004163E06BFEF7E8FD002811D0E06B416BA1
:1016800001B0BDE8F040084783060ED593060CD59F
:101690002046BDE8F84000F0F8BD2046FFF78CFF7B
:1016A000F8BDFFF789FF6564F8BD266B2023012E86
:1016B0007CD1C6067AD5D60678D5086848680090E9
:1016C00048694FF00206400640D5E16B0868406863
:1016D0000004000CE8D0A28D8242E5D9E08588693B
:1016E00020282DD020680C3050E8001F21F4807194
:1016F00040E80012002AF5D12068143050E8001F9D
:1017000021F0010140E80012002AF5D120681430D0
:1017100050E8001F21F0400140E80012002AF5D1F6
:1017200084F84230256320680C3050E8001F21F017
:10173000100140E80012002AF5D1E06BFEF761FDD0
:101740006663A08DE18D401A81B22AE0A08DE18D03
:10175000401A81B2E08D0028A6D00029A4D02068CC
:101760000C3050E8002F22F4907240E80027002F40
:10177000F5D12068143050E8002F22F0010240E833
:101780000027002FF5D184F84230256320680C3003
:1017900050E8002F22F0100240E80023002BF5D182
:1017A00066632046FFF7CFFEF8BDFFE705062BD5A1
:1017B000150629D594F841002128F5D1A068B0F587
:1017C000805F01D12069B0B1206A411C216221688B
:1017D00000784860E08C401E0004000CE084E3D1F7
:1017E0002068C16821F08001C1602068C16841F0B3
:1017F0004001C160D8E7206A0088C0F30800486053
:10180000206A801C2062E5E74006CDD55006CBD586
:10181000CA68204622F04002CA6084F8413000F0D5
:10182000EFF8C1E7D720000870B5040004D094F8A1
:101830004100002510B106E0012070BD84F8405041
:10184000204600F023F8242084F841002068C16875
:1018500021F40051C160204600F078FD2068016944
:1018600021F4904101612068416921F02A01416120
:101870002068C16841F40051C1606564202084F88B
:10188000410084F842006563002070BDF0B585B06A
:1018900000250446009501950295039500682C49A2
:1018A000884253D12B48C16941F40031C161C169FB
:1018B00001F400310491816941F004018161806982
:1018C000254E00F0040004900420009002200190B6
:1018D0000320039069463046FEF714FE0820CDE948
:1018E0000005694630460295FEF70CFE1C4E1B486B
:1018F0008027C6E90005C6E9025735617561B56103
:101900003046F561FEF798FD08B1FEF778FCE66316
:101910007462134E11484436143001C61020A1C61B
:101920000F4846F8105944307561B561F561FEF70E
:1019300083FD08B1FEF763FCA66300220221262086
:101940007462FEF737FF2620FEF726FF05B0F0BDD4
:101950000044004000100240000801406C000240BA
:101960004801002090F84230202B01D0022070471F
:1019700021B11AB10023036300F044BD0120704778
:101980007047704737B5044690F84100202801D0D1
:1019900002203EBD019951B34AB32162A284E28480
:1019A00000206064212384F84130A56B114BAB62A9
:1019B000A56B114BEB62A56B104B2B63A36B5863AC
:1019C00020681346A56B021D2846FEF763FD2168BB
:1019D0006FF0400008602068143050E8001F41F0AC
:1019E000800140E80012002AF5D100203EBD012010
:1019F0003EBD0000D521000817220008E72000089E
:101A000070477047FEE700000D4808B5416941F096
:101A1000010141614069002200F00100009011467F
:101A20001020FEF7C7FE1020FEF7B6FE002211467A
:101A30001120FEF7BFFEBDE808401120FEF7ACBE46
:101A4000001002402DE9F04385B000242D48009499
:101A5000019402940394816941F0100181618169CC
:101A600001F010010491816941F0200181618169D7
:101A700001F020010491816941F0040181618169D3
:101A800001F004010491816941F0080181618069DC
:101A9000DFF8748000F0080041F203650490002232
:101AA00029464046FEF714FEDFF860904FF40046EA
:101AB000002231464846FEF70BFE0095022701251D
:101AC0000397CDE9015469464046FEF71BFD280304
:101AD0008DE8310069464846FEF714FD03970096ED
:101AE000CDE9015469464846FEF70CFD4FF4787085
:101AF000CDE90004694648460294FEF703FD05B0AF
:101B0000BDE8F0830010024000080140000C0140D5
:101B100010B592B000240F941C2168461094FEF773
:101B200008FB202107A8FEF704FB25482349016094
:101B30004721C0E9011440F2E731C0E903144461D0
:101B40008461FFF766FB08B1FEF759FB0F940FA9FC
:101B50001B481094FFF70EF908B1FEF750FB602008
:101B600000904FF4FA70CDE90104039404940594B5
:101B70000022694612480694FFF7E5FA08B1FEF71D
:101B80003EFB0C2269460E48FFF7DDFA08B1FEF76E
:101B900036FB0794089409944FF400500A94CDE959
:101BA0000B4007A906480E94FFF7BAF808B1FEF7F4
:101BB00026FB0348FFF790FA12B010BD002C01403D
:101BC0002800002010B586B0002417480094019426
:101BD0000294039404944FF08041059401604721DE
:101BE000C0E9011440F2E731C0E9031480218161AA
:101BF000FFF7F4F808B1FEF702FB4FF480500090B5
:101C000069460948FFF760F908B1FEF7F8FA04944D
:101C100004A905480594FFF7ADF8002801D0FEF7A8
:101C2000EEFA06B010BD00007000002010B58AB0BA
:101C3000002407941C2168460894FEF77AFA1B4892
:101C40001949016040F2CF21C0E9011440F2CF717F
:101C5000C0E9031480218161FFF7DBFA08B1FEF7C8
:101C6000CEFA079407A911480894FFF783F808B142
:101C7000FEF7C5FA6020CDE900040294002269460F
:101C80000A480494FFF75FFA08B1FEF7B8FA042295
:101C900069460648FFF757FA08B1FEF7B0FA03485D
:101CA000FFF71AFA0AB010BD00040040B800002087
:101CB00010B5114C0F480C2120604FF41650606095
:101CC0000020A060E060C4E90401A061E06120465A
:101CD000FFF7AAFD08B1FEF792FA2068C16841F04B
:101CE0001001C160BDE81040032204490248FFF71B
:101CF00039BE000000440040000100200300002025
:101D0000FEE7FEE77047000010B5064C00220221F6
:101D10002046FEF7DDFC20460122BDE810401146BA
:101D2000FEF7D6BC0008014010B5064C0122022186
:101D30002046FEF7CDFC20460022BDE810400121E0
:101D4000FEF7C6BC000801407047000010B504460D
:101D500004210348FFF7ACFA01480068846310BD12
:101D6000B800002010B5044600210348FFF7A0FA90
:101D700001480068446310BDB800002070B5104DE4
:101D80004FF4004401280AD0012221462846FEF7DC
:101D90009FFCBDE8704004210A48FFF7D9BA002132
:101DA0000848FFF785FA002221462846FEF790FCF6
:101DB000BDE87040012251020348FEF789BC0000D3
:101DC000000C0140280000200008014070B5104CB4
:101DD0004FF4806501280AD0012229462046FEF7EB
:101DE00077FCBDE8704004210A48FFF7B1BA0C2126
:101DF0000848FFF75DFA002229462046FEF768FCF6
:101E00002046BDE8704001221103FEF761BC0000CE
:101E10000008014028000020FEF766BC30B58FB0F6
:101E200028216846FEF785F914210AA8FEF781F9F2
:101E30000120010400248DE8130004904FF4E01009
:101E4000CDE90810022507956846FEF7C7FD08B1E1
:101E500072B6FEE70F20CDE90A054FF48060CDE9A8
:101E60000C4002210AA80E94FEF7D6FC002801D0EF
:101E700072B6FEE70FB030BD704700000148FFF7B3
:101E800092B8000070000020F0B50268194C1A4D9D
:101E90001A4E4FF08047A04205D0B84203D0A84266
:101EA00001D0B04203D122F070034A681A43A04225
:101EB00005D0B84203D0A84201D0B04203D122F4E9
:101EC0004073CA681A434B6922F080021A430260C9
:101ED0008A68C2620A688262A04201D1096901630C
:101EE000012141610169C90703D0016921F00101A4
:101EF0000161F0BD002C01400004004000080040DA
:101F000010B501F01F010123046A8B409C43046259
:101F1000036A8A401343036210BD10B5846842EA25
:101F2000032224F47F440A432243826010BD826866
:101F300022F070020A4342F00701816070470000FE
:101F400030B5026A036A23F00103036243688469BF
:101F500024F073050C682C4322F002058A682A439A
:101F60000C4DA84206D122F00805CA6842EA0502D3
:101F700022F0040207D14D6923F4407345EA0305BA
:101F80008B6943EA050343608461496841630262E7
:101F900030BD0000002C014030B5036A026A22F017
:101FA00010020262426884690D6824F4E64444EA3F
:101FB00005248D6823F0200343EA05130C4DA84245
:101FC00006D1CD6823F0800343EA051323F04003D4
:101FD00007D14D6922F4406242EA85028D6942EAE6
:101FE00085024260846149688163036230BD0000FC
:101FF000002C014030B5026A036A23F48073036247
:102000004368C46922F4007224F073050C682C4301
:102010008D6842EA05220C4DA84206D1CD6822F413
:10202000006242EA052222F4806207D14D6923F45E
:10203000405343EA05138D6943EA05134360C461C5
:102040004968C163026230BD002C014030B5046AAA
:10205000026A22F4805202624268C3690D6823F466
:10206000E64343EA05238D6824F4005444EA05342A
:10207000064DA84204D14D6922F4804242EA8512FD
:102080004260C36149680164046230BD002C0140B4
:1020900010B5046A036A23F001030362836923F025
:1020A000F00343EA021324F00A020A438361026246
:1020B00010BD10B5036A046A24F010040462846938
:1020C00023F0A00324F4704444EA023243EA0111ED
:1020D0008261016210BD10B5406A0021C185C184D2
:1020E000FFF76AFA10BD70B5446A2068406994F839
:1020F0004110C0F3C0100025212904D118B1E58496
:10210000204600F0B4F82068406994F84210C0F30B
:102110008010222904D118B1E585204600F080F80E
:10212000606C40F0100060642046FFF745FA70BD17
:1021300010B50146406A096809684FF00003890636
:102140002ED4C38501680C3151E8002F22F480722F
:1021500041E80024002CF5D10168143151E8002F2A
:1021600022F0010241E80024002CF5D1016814316D
:1021700051E8002F22F0400241E80024002CF5D164
:10218000202180F84210016B012909D101680C312E
:1021900051E8002F22F0100241E80024002CF5D174
:1021A0004363016B012902D0FFF7EAFB10BD818D6B
:1021B000FFF7C9F910BD10B5406A01214163016BF9
:1021C000012902D0FFF7DDFB10BD818D4908FFF723
:1021D000BAF910BD10B50146406A09680968890658
:1021E00016D40021C1840168143151E8002F22F077
:1021F000800241E80023002BF5D101680C3151E841
:10220000002F42F0400241E80023002BF5D110BD21
:10221000FFF7F6FB10BD10B5406AFFF7F2FB10BDEB
:1022200001680C3151E8002F22F4907241E800233C
:10223000002BF5D10168143151E8002F22F0010282
:1022400041E80023002BF5D1016B012909D1016878
:102250000C3151E8002F22F0100241E80023002B3E
:10226000F5D1202180F842100021016370470168F8
:102270000C3151E8002F22F0C00241E80023002B6E
:10228000F5D1202180F84110704708B590F8421030
:10229000222901D0022008BD81684FF48053994261
:1022A00001D1026922B1826A99421BD049B10AE088
:1022B0000268816A5268C2F308020A80816A891C36
:1022C00008E0016971B10168496801F07F0111708E
:1022D000816A491C8162C18D491E0904090CC185AE
:1022E00003D01BE001684968F1E70168CA6822F081
:1022F0002002CA600168CA6822F48072CA6001685C
:102300004A6922F001024A61202180F8421000212E
:102310004163026B012A03D0FFF732FB002008BDA6
:10232000016301680C3151E8002F22F0100241E8EE
:102330000023002BF5D101680A68D20602D50A688D
:1023400049680091818DFFF7FEF8E7E770B5044614
:1023500000680169E26821F4405111430161A168FC
:1023600020690143606901432068C26841F20C633F
:102370009A430A43C26020684169A26921F440710E
:10238000114341611E492068884202D1FEF7F0FAEC
:1023900001E0FEF7DDFA00EBC00101EB001160681F
:1023A00064228000B1FBF0F3B3FBF2F36FF0180688
:1023B0007343B1FBF0F5B1FBF0F605EB8305322377
:1023C00003EB0515B5FBF2F5B6FBF2F605F0F005EB
:1023D00005EB0615B1FBF0F6B1FBF0F0B0FBF2F047
:1023E0006FF01801484306EB800003EB0010B0FBD0
:1023F000F2F0216800F00F002844886070BD0000F2
:102400000038014037B582B01346039A8262044611
:10241000838500206064222184F84210E56B1B490B
:10242000A962E56B1A49E962E56B1A492963E16B18
:1024300048632168E06B091DFEF72CF820680168ED
:1024400040680090206948B120680C3050E8001FB7
:1024500041F4807140E80012002AF5D12068143060
:1024600050E8001F41F0010140E80012002AF5D1B8
:102470002068143050E8001F41F0400140E800128D
:10248000002AF5D105B0002030BD00003121000840
:10249000B7210008E72000080D4808B5006801686A
:1024A000C1F3001179B10168406800900848FFF756
:1024B0004BF80848006840680749C0F103000870FD
:1024C000064901200870BDE808400148FFF776B8CA
:1024D0000001002048010020000000200200002030
:1024E000FEE70907090E002804DB00F1E02080F870
:1024F0000014704700F00F0000F1E02080F8141D78
:10250000704702E008C8121F08C1002AFAD17047BC
:102510007047002001E001C1121F002AFBD1704763
:10252000FEF7EAF8FFF77AFCFFF78CFAFFF76CFA90
:10253000FFF7EEFAFFF746FBFFF778FBFFF7B8FB74
:102540001148FEF795FC00211048FEF7B1FE04216A
:102550000E48FEF7ADFE00F025F80D4D0D4C00269F
:10256000287801280AD1207840B90B48FDF732FEBF
:1025700026702E7021780948FDF7DBFD03220749FC
:102580000748FFF7EFF9EBE770000020B8000020E4
:1025900002000020000000201C000020030000209A
:1025A0000001002010B511480024446004704470FC
:1025B0000120FFF7E3FB0120FFF708FC3220FFF7C3
:1025C000D1FB8720FFF7C2FBFFF79EFB08480821DD
:1025D0000470084801700621417009218170064885
:1025E0000178BDE810400348FDF7E4BD200000205D
:1025F0001C000020060000200100002010B50B4840
:1026000000244460047044700120FFF7B7FB0120F0
:10261000FFF7DCFB3220FFF7A5FB8720FFF796FBD7
:10262000FFF772FB0248047010BD0000200000207C
:102630001C00002010B58720FFF788FB014900200F
:10264000087010BD1C00002070B52F4C6068322847
:1026500005D10020FFF792FB0020FFF7B7FB606871
:10266000B0F5FA6F20D1294801250078012806D05D
:10267000022806D0032809D004280AD12EE03220EF
:1026800005E07520FFF76EFB657002E0B820FFF7EC
:1026900069FB1F48082101704570092181701D48A0
:1026A00001781B48FDF786FD60684FF47A65A84203
:1026B0000FD1607801280AD03C20FFF747FB0220A9
:1026C00020706068A84204D1607801281AD1FFF711
:1026D0002BFB6068B0F5FA5F02D006E0FA20D6E77F
:1026E000607801280ED1FFF70FFB6068A0F5385124
:1026F000E03907D16078012804D13C20FFF726FBA0
:102700000320207070BD0000200000201C0000206D
:102710000600002001000020010202030405060754
:1027200008090A0B0C0D0E0F10100000000000002D
:10273000000001020304060708090000000001026E
:1027400003040000642700080000002028000000A7
:10275000022500088C27000828000020A80500009A
:102760001225000800030000000000000000000027
:1027700001000000100000000000000000127A00BC
:0C2780000000000000000000000000004D
:04000005080000ED02
:00000001FF
