:020000040800F2
:100000003008002089010008A31D0008A51A000877
:10001000A11D0008D30200085925000800000000B7
:10002000000000000000000000000000E91D0008C2
:100030006103000800000000A51D0008A11E0008C3
:10004000A3010008A3010008A3010008A301000800
:10005000A3010008A3010008A3010008A3010008F0
:10006000A3010008A3010008A3010008A3010008E0
:10007000A3010008A3010008A3010008A3010008D0
:10008000D5020008E1020008A3010008A30100084E
:10009000A3010008A3010008A3010008A3010008B0
:1000A000A3010008A3010008A3010008A3010008A0
:1000B000051F0008A3010008A3010008A301000810
:1000C000A3010008A3010008A3010008A301000880
:1000D000A3010008A301000811250008A3010008DE
:1000E000A3010008A3010008A301000800F002F822
:1000F00000F03AF80AA090E8000C82448344AAF188
:100100000107DA4501D100F02FF8AFF2090EBAE885
:100110000F0013F0010F18BFFB1A43F0010318473B
:100120001426000034260000103A24BF78C878C195
:10013000FAD8520724BF30C830C144BF04680C60ED
:10014000704700000023002400250026103A28BF35
:1001500078C1FBD8520728BF30C148BF0B60704739
:100160001FB51FBD10B510BD00F07AF81146FFF79E
:10017000F7FF02F003FA00F098F803B4FFF7F2FF7C
:1001800003BC00F09FF80000094880470948004779
:10019000FEE7FEE7FEE7FEE7FEE7FEE7FEE7FEE737
:1001A000FEE7FEE704480549054A064B7047000094
:1001B000031F0008ED000008300200203008002076
:1001C00030040020300400204FF000020429C0F069
:1001D000128010F0030C00F01B80CCF1040CBCF179
:1001E000020F18BF00F8012BA8BF20F8022BA1EBCB
:1001F0000C0100F00DB85FEAC17C24BF00F8012BB0
:1002000000F8012B48BF00F8012B70474FF00002A7
:1002100000B5134694469646203922BFA0E80C50FC
:10022000A0E80C50B1F12001BFF4F7AF090728BFD7
:10023000A0E80C5048BF0CC05DF804EB890028BF53
:1002400040F8042B08BF704748BF20F8022B11F07C
:10025000804F18BF00F8012B7047704770477047F8
:10026000754600F02BF8AE4605006946534620F06F
:100270000700854618B020B5FFF794FFBDE8204081
:100280004FF000064FF000074FF000084FF0000B52
:1002900021F00701AC46ACE8C009ACE8C009ACE805
:1002A000C009ACE8C0098D46704710B50446AFF3ED
:1002B00000802046BDE81040FFF75FBF0048704750
:1002C000D001002001491820ABBEFEE72600020045
:1002D0007047FEE7014800F0B5B800004801002073
:1002E000014800F0AFB800008C01002030B590F854
:1002F00040500124AC40C56B6C6004686360436887
:10030000102B036803D099600068C26030BD9A600A
:100310000068C16030BD00000A4610B501460548BE
:1003200001F082FB002803D0BDE8104000F019B8AE
:1003300010BD0000000100200022084902E0521C0C
:10034000D2B2491C0B78082B02D0042AF7D9704787
:100350008A78092AFBD14978017070470300002090
:10036000704772B6FEE710B590F8211000220229FE
:1003700005D00421816380F82020012010BD016890
:100380000B6823F00E030B6001680B6823F0010378
:100390000B6090F84030C46B012101FA03F36360F5
:1003A00080F8211080F82020104610BD10B590F87C
:1003B00021100024022903D00421816301243DE09F
:1003C00001680A6822F00E020A6001680A6822F0D9
:1003D00001020A601A4A0168914201D1012121E01B
:1003E000174A1432914201D110211BE0144A2832DD
:1003F000914201D1891515E0114A3C32914201D157
:1004000089140FE00E4A5032914202D14FF48031EC
:1004100008E00B4A6432914202D14FF4801101E0AE
:100420004FF08071064A083A5160012180F821108E
:10043000002180F82010416B01B18847204610BD93
:10044000080002402DE9F05FC16B0C6801680B6881
:10045000D0F840C0042202FA0CF2494DDFF824A182
:10046000494E4A4FDFF828B1DFF828E122422CD06C
:100470005A072AD50A68920603D40A6822F00402B1
:100480000A600168A94201D1042219E0514501D155
:10049000402215E0B14202D14FF4806210E0B9422F
:1004A00002D14FF480420BE0594502D14FF4802233
:1004B00006E0714502D14FF4800201E04FF0806206
:1004C0002F4908394A60C16A3BE04FF0020808FA38
:1004D0000CF818EA040F4FF000094FF0010235D074
:1004E0005FEA837832D50B689B0605D40B6823F04E
:1004F0000A030B6080F821200168A94201D1022281
:1005000019E0514501D1202215E0B14202D14FF44A
:10051000007210E0B94202D14FF400520BE059458D
:1005200002D14FF4003206E0714502D14FF40012BF
:1005300001E04FF00072124908394A6080F82090BB
:10054000816A00291AD0BDE8F05F0847082505FA3E
:100550000CF5254212D01B0710D50B6823F00E03B3
:100560000B6090F84010C36B02FA01F1596082638E
:1005700080F8212080F82090016BE2E7BDE8F09F31
:10058000080002401C0002403000024044000240CB
:10059000580002406C00024030B528B308C8134927
:1005A00014221944B1FBF2F18900C163104981633F
:1005B000022141771A6843F6F0718A43D0E90014AA
:1005C0002143D0E902452C43214304692143446976
:1005D00021438469214311431960002141630122B1
:1005E00042770177084630BD012030BDF8FFFDBFDE
:1005F0000000024070B5044690F820000025012854
:100600000CD0012084F8200094F821600020012EF5
:1006100006D084F820000225284670BD022070BD57
:10062000022684F82160A0632068066826F001068F
:1006300006602046FFF75AFEE06A0028206801683D
:1006400002D041F00E0106E021F0040101602068B3
:10065000016841F00A0101602068016841F0010170
:100660000160D9E72DE9F84FDFF8B8910024A9F12E
:10067000040B23460F2709F1040AABF1040EC9E06D
:100680000125A5402A40AA427DD1674ED1F804C079
:10069000ACEB0608B44532D014DCBCF1030F3AD001
:1006A00009DCBCF1000F2AD0BCF1010F1CD0BCF159
:1006B000020F31D11DE0BCF1110F17D0BCF1120FA8
:1006C0002AD119E0B8F5881F19D006DCB8F5803FAB
:1006D00015D0B8F5801F1FD111E0B8F5001F0ED05E
:1006E000B8F5041F18D10AE0CB6815E0CB681B1DD4
:1006F00012E0CB6808330FE0CB680C330CE08B685A
:100700002BB1012B4FF0080303D0456104E0042313
:1007100002E0056100E00023FF2A01D8064601E05F
:1007200000F104064FEA840501D9A5F12005D6F8A9
:10073000008007FA05FC28EA0C0803FA05F548EAE8
:100740000508C6F800804D68ED0062D5374DAE69EA
:1007500046F00106AE61AD6924F0030605F001051F
:100760000095334D06EB050CDCF80850A607360F54
:1007700007FA06F825EA0805DFF8B880404503D1F6
:100780004FF0000817E044E0DFF8AC80404502D1AC
:100790004FF001080FE0DFF8A480404502D14FF090
:1007A000020808E0DFF89880404502D14FF00308C6
:1007B00001E04FF0040808FA06F848EA0508CCF80A
:1007C00008804D68D9F80060ED024D4601D516430A
:1007D00000E096432E604D68DAF80060AD025546A1
:1007E00001D5164300E096432E604D68DBF80060AB
:1007F000AD035D4601D5164300E096432E604D687B
:10080000DEF80060ED03754601D5164300E096431F
:100810002E60641C0D682A46E5407FF431AFBDE8C8
:10082000F88F000008040140000011100010024081
:100830000000014000080140000C01400010014090
:10084000001401400AB1016170470904FBE7000090
:1008500001488068704700000C0000200248816851
:1008600002781144816070470C000020074810B5E1
:10087000016841F010010160032000F075F80F20BD
:1008800000F006F800F024F8002010BD002002401F
:1008900070B50D4D04464FF47A712878B1FBF0F035
:1008A0000A490968B1FBF0F000F0DCFA48B9102CF5
:1008B00007D200222146501E00F036F800206C605E
:1008C00070BD012070BD00000C0000201800002049
:1008D0000C4808B5816941F001018161816901F02D
:1008E00001010091C16941F08051C161C06900F00E
:1008F000805000900448416821F0E06141F00071AF
:10090000416008BD0010024000000140002809DBE2
:1009100000F01F02012191404009800000F1E02019
:10092000C0F8001170470000F0B40E4B1B680C4675
:10093000C3F30223C3F10705042D00D90425191DB3
:10094000072901D2002300E0DB1E012606FA05F18B
:10095000491E214099409E40761E16403143F0BC0E
:1009600001F0FBBD0CED00E0064900F0070208684D
:100970004FF6FF03184040EA0220034A1043086084
:10098000704700000CED00E00000FA052DE9F0478B
:100990000F46050061D0434E306800F00700B842B2
:1009A00009D2306820F0070038433060306800F02A
:1009B0000700B84251D128683B4C810712D5400747
:1009C00003D5606840F4E06060602878000703D5D4
:1009D000606840F4605060606068A96820F0F000D2
:1009E000084360602878C00728D06868012810D0C4
:1009F0002168022810D0890700292EDA616821F0C9
:100A0000030101436160FFF723FF804641F288390B
:100A10000DE021688903EFE78901EDE7FFF718FF93
:100A2000A0EB0801494502D90320BDE8F0876068C2
:100A3000696800F00C00B0EB810FEFD1306800F076
:100A40000700B8420BD9306820F007003843306007
:100A5000306800F00700B84201D00120E5E72878AF
:100A6000400705D56068E96820F4E06008436060ED
:100A70002878000706D56068296920F4605040EAAC
:100A8000C100606000F038F86168084AC1F30311E2
:100A9000515CC8400649086006480068FFF7F8FE48
:100AA0000020C2E700200240001002401A27000880
:100AB000180000201000002004480549006849681B
:100AC000044AC1F30221515CC8407047180000205D
:100AD000001002402A2700080448054900684968B8
:100AE000044AC1F3C221515CC8407047180000207D
:100AF000001002402A2700080E4A51680E4801F0F3
:100B00000C03042B11D0082B0FD10C48C1F38343E5
:100B1000C903C05C0AD55168084AC1F34041921E1E
:100B2000515C054A5043B0FBF1F07047044948431B
:100B3000704700000010024000127A000A270008E7
:100B400000093D002DE9F84F040070D02078C04D19
:100B5000C00749D06868C0F38100012807D06868E1
:100B6000C0F38100022809D16868C00306D528684F
:100B7000800339D560680028E7D035E06068B0F5BB
:100B8000803F0BD010B1B0F5A02F11D0286820F411
:100B900080302860286820F4802002E0286840F433
:100BA00080302860606890B1FFF752FE06460AE088
:100BB000286840F480202860F0E700BFFFF748FE77
:100BC000801B642873D828688003F7D50CE0FFF7F2
:100BD0003FFE064605E000BFFFF73AFE801B642893
:100BE000F0D828688003F7D420789A4E80074FF019
:100BF00001094FF0000839D5686810F00C0F07D0D4
:100C00006868C0F38100022809D16868C00306D46F
:100C10002868800714D52069012808D110E02069D0
:100C2000B0B1C6F80090FFF713FE074605E00AE1F1
:100C3000FFF70EFEC01B0228C4D828688007F7D52E
:100C40002868616920F0F80040EAC10028600DE0E2
:100C5000C6F80080FFF7FCFD074604E0FFF7F8FD4B
:100C6000C01B022823D828688007F7D42078000703
:100C70002CD57948A169D9B1C0F80090FFF7E8FDFB
:100C8000074604E0FFF7E4FDC01B02280FD8686A9E
:100C90008007F7D571484FF4FA510068B0FBF1F0C6
:100CA000009000BF0098411E0091FAD20EE080E053
:100CB000C0F80080FFF7CCFD074604E0FFF7C8FD51
:100CC000C01B022875D8686A8007F7D420784007CF
:100CD00060D5E8690027C00008D4E86940F080507A
:100CE000E861E869012700F0805000905C480168E5
:100CF000C90513D40168834641F480710160FFF790
:100D0000A7FD824606E000BFFFF7A2FDA0EB0A00A8
:100D100064284ED8DBF80000C005F5D5E06801284E
:100D20000AD008B1052813D0286A20F001002862F3
:100D3000286A20F0040002E0286A40F001002862DE
:100D4000E06841F2883B98B1FFF782FD82460BE0F4
:100D5000286A40F004002862EEE700BFFFF778FD44
:100D6000A0EB0A0159455AD8286A8007F6D50CE04D
:100D7000FFF76EFD824605E0FFF76AFDA0EB0A0172
:100D800059454CD8286A8007F6D41FB1E86920F08D
:100D90008050E861E06988B36968C1F38101022984
:100DA00044D00228C6F8608004D0FFF751FD044605
:100DB00038E034E0FFF74CFD074604E0FFF748FD5C
:100DC000C01B02282BD828688001F7D4206AB0F510
:100DD000803F05D16868A16820F40030084368604E
:100DE000D4E908010843696821F474110843686074
:100DF000C6F86090FFF72CFD044606E025E000BF32
:100E0000FFF726FD001B022809D828688001F7D5C6
:100E10001BE000BFFFF71CFD001B022802D90320C6
:100E2000BDE8F88F28688001F4D40EE00128F7D0DF
:100E30006868226A00F48031914204D1616A00F44A
:100E40007010884201D00120EAE70020E8E70000A6
:100E5000001002400000424280044242180000207C
:100E60000070004010B5401EB0F1807F01D301201A
:100E700010BD4FF0E02460610F21601701F06DFBA1
:100E80000020A06107202061002010BD704770473E
:100E900010B590F83C20012A22D0012280F83C2095
:100EA000CA688C6822F4407222434C6822F4806243
:100EB00022430C6822F4006222430C6922F480521F
:100EC00022434C6922F400522243C969002322F4D0
:100ED00080420A4301684A6480F83C30002010BD1B
:100EE000022010BD70B590F83C20012A26D00124C4
:100EF00080F83C40022280F83D2003685A689D68D3
:100F000022F070060A6832435A600D4B02689A421A
:100F100008D0B2F1804F05D00A4B9A4202D00A4B5A
:100F20009A4204D1496825F080031943916080F802
:100F30003D40002180F83C10084670BD022070BD85
:100F4000002C0140000400400008004010B50400DF
:100F500003D094F83D0010B107E0012010BD00203F
:100F600084F83C00204600F01FF8022084F83D0081
:100F7000211D206800F0CCFF012084F8460084F891
:100F80003E0084F83F0084F8400084F8410084F873
:100F9000420084F8430084F8440084F8450084F853
:100FA0003D00002010BD000008B50068B0F1804F82
:100FB00012D10A48C16941F00101C161C069002232
:100FC00000F00100009001211C20FFF7ADFCBDE8FE
:100FD00008401C20FFF79ABC08BD0000001002402A
:100FE00090F83D10012901D001207047022180F8BE
:100FF0003D100168CA6842F00102CA6000680B49EE
:10100000884208D0B0F1804F05D00949884202D00B
:101010000849884204D1816801F00701062903D0FC
:10102000016841F00101016000207047002C01407F
:10103000000400400008004070B5044690F83C00F1
:101040000025012817D0012684F83C60022084F88E
:101050003D002068826822F0770222F47F4282609D
:101060000868502838D00DDC20284FD005DC90B31C
:10107000102811D14AE0022070BD302846D0402807
:101080000AD13BE060282FD070280DD0B0F5805FEA
:1010900003D0B0F5005F12D0012584F83D60002038
:1010A00084F83C00284670BDCB68D1E90121206856
:1010B00000F077FF2068816841F0770109E0CB6894
:1010C000D1E90121206800F06CFF2068816841F4BB
:1010D00080418160E1E719E0CA684968206801F051
:1010E00015F85021206806E0CA684968206801F0B8
:1010F0001EF86021206800F05EFFCEE7CA684968EC
:10110000206801F003F840212068F4E722680146D6
:101110001046F0E770472DE9F04104460068C668C4
:1011200005694FF00007A90713D5B10711D5F91EBE
:10113000016101202077206880698007204602D065
:10114000FFF7E8FF04E000F0B5F8204600F066F98C
:101150002777680716D5700714D521686FF004004B
:101160000861022020772068806910F4407F2046C3
:1011700002D0FFF7CFFF04E000F09CF8204600F01B
:101180004DF92777280715D5300713D521686FF05B
:1011900008000861042020772068C0698007204685
:1011A00002D0FFF7B7FF04E000F084F8204600F01B
:1011B00035F92777E80616D5F00614D521686FF0C3
:1011C00010000861082020772068C06910F4407F73
:1011D000204602D0FFF79EFF04E000F06BF82046A7
:1011E00000F01CF92777E80708D0F00706D021683F
:1011F0006FF001000861204600F098F9280608D534
:10120000300606D521686FF0800008612046FFF7A0
:101210003DFE680608D5700606D521686FF04000CF
:101220000861204600F0E0F9A8060AD5B00608D506
:1012300021686FF0200008612046BDE8F041FFF70B
:1012400026BEBDE8F081000010B586B000210091F7
:10125000019102910391134C036813490222134830
:10126000A3420AD18B6943F004038B61896901F0C1
:10127000040104914FF410610BE00D4CA3420ED118
:101280008B6943F004038B61896901F004010491C7
:10129000C021CDE9001269460392FFF7E3F906B0D9
:1012A00010BD0000002C0140001002400008014069
:1012B00000040040704770B5044690F83C000026DA
:1012C0000D4601280FD0012084F83C006AB1042AA1
:1012D0001DD0082A2FD00C2A3FD00126002084F8E8
:1012E0003C00304670BD022070BD206800F06CFEEE
:1012F0002068816941F0080181612068816921F0DD
:1013000004018161206881692A69114311E0206824
:1013100000F082FE2068816941F4006181612068EB
:10132000816921F480618161206881692A6941EACB
:1013300002218161D2E7206800F09AFE2068C1692D
:1013400041F00801C1612068C16921F00401C16157
:101350002068C1692A69114311E0206800F0B4FED9
:101360002068C16941F40061C1612068C16921F44C
:101370008061C1612068C1692A6941EA0221C161B5
:10138000ACE710B5040003D094F83D0010B107E0BD
:10139000012010BD002084F83C00204600F01EF81B
:1013A000022084F83D00211D206800F0B1FD0120DD
:1013B00084F8460084F83E0084F83F0084F840003A
:1013C00084F8410084F8420084F8430084F8440023
:1013D00084F8450084F83D00002010BD08B50C4A93
:1013E00001680C48914207D1816941F40061816133
:1013F000806900F4006009E0074A914207D1C169A1
:1014000041F00201C161C06900F00200009008BD16
:10141000002C014000100240000400407047000012
:1014200010B50446022249B104290ED0082913D070
:1014300094F84100012816D0012010BD94F83E0018
:101440000128F9D184F83E200FE094F83F000128EC
:10145000F2D184F83F2008E094F840000128EBD155
:1014600084F8402001E084F841200122206800F047
:101470008BFD0F492068884203D1426C42F4004240
:1014800042642068884208D0B0F1804F05D00949F5
:10149000884202D00849884204D1816801F00701DE
:1014A000062903D0016841F001010160002010BD50
:1014B000002C0140000400400008004030B5044604
:1014C0000D460068002200F05FFD174B41F211113C
:1014D00020688A10984209D1036A0B4206D1036A38
:1014E000134203D1436C23F4004343642068036A2E
:1014F0000B4206D1016A114203D1016821F00101BA
:10150000016001203DB1042D08D0082D09D084F8D8
:101510004100002030BD84F83E00FAE784F83F0027
:10152000F7E784F84000F4E7002C01402DE9F0478C
:10153000284988424CD1284D284C287821780843E6
:1015400005D1012000F05EFC012000F083FC28782A
:1015500008B1207818B12078012802D006E00120D7
:1015600020706068401C606001F066F820780226F8
:1015700008271B4DDFF86C904FF00908022810D1A6
:101580006068401C6060B0F5FA5F21D12F706E700A
:1015900085F8028099F800102846FEF7BDFE01F09C
:1015A0002FF82078032813D16068401CA0F58C41E7
:1015B000606050390CD12F706E7085F8028099F8F8
:1015C00000100748FEF7A8FEBDE8F04701F018B884
:1015D000BDE8F087700000201C00002020000020E3
:1015E00006000020010000207047704710B5044637
:1015F0000068406994F84110C0F3C010212911D14E
:1016000080B12068143050E8001F21F0800140E8CC
:101610000012002AF5D1A06B08B1FEF7A4FE204607
:1016200000F063FE2068406994F84210C0F3801017
:10163000222911D180B12068143050E8001F21F018
:10164000400140E80012002AF5D1E06B08B1FEF736
:101650008AFE204600F022FE002010BD70470000E8
:10166000F8B5016804460868CA684B6910F00F0FA6
:101670004FF000055AD003F0010602F4907737438B
:1016800065D0C10705D0D10503D5616C41F00101DA
:101690006164410705D5D90703D0616C41F00201AF
:1016A0006164810705D5D90703D0616C41F004015D
:1016B0006164010707D502F02001314303D0616C5A
:1016C00041F008016164616C00293BD0800604D5BB
:1016D000900602D5204600F016FE20684069616C35
:1016E000C0F3801001F00801014320462BD000F028
:1016F000D5FD20684069400621D52068143050E8A7
:10170000001F21F0400140E80012002AF5D1E06BF3
:10171000A8B16D494163E06BFEF748FE002811D087
:10172000E06B416B01B0BDE8F040084783060ED581
:1017300093060CD52046BDE8F84000F0E4BD2046F5
:10174000FFF78CFFF8BDFFF789FF6564F8BD266BD6
:101750002023012E7CD1C6067AD5D60678D5086816
:101760004868009048694FF00206400640D5E16B9A
:10177000086840680004000CE8D0A28D8242E5D9D8
:10178000E085886920282DD020680C3050E8001FA3
:1017900021F4807140E80012002AF5D1216814314B
:1017A00051E8000F20F0010041E80002002AF5D1C5
:1017B0002068143050E8001F21F0400140E800127A
:1017C000002AF5D184F84230256320680C3050E8B7
:1017D000001F21F0100140E80012002AF5D1E06B53
:1017E000FEF7C1FD6663A08DE18D401A81B22AE04B
:1017F000A08DE18D401A81B2E08D0028A6D000298D
:10180000A4D022680C3252E8000F20F4907042E815
:101810000007002FF5D12068143050E8002F22F087
:10182000010240E80027002FF5D184F842302563FB
:1018300020680C3050E8002F22F0100240E800230E
:10184000002BF5D166632046FFF7CFFEF8BDFFE71A
:1018500005062BD5150629D594F841002128F5D188
:10186000A068B0F5805F01D12069B0B1206A411C49
:101870002162216800784860E08C401E0004000C62
:10188000E084E3D12068C16821F08001C160206854
:10189000C16841F04001C160D8E7206A0088C0F308
:1018A00008004860206A801C2062E5E74006CDD52C
:1018B0005006CBD5CA68204622F04002CA6084F8A0
:1018C000413000F0EDF8C1E75321000870B5040085
:1018D00004D094F84100002510B106E0012070BD4D
:1018E00084F84050204600F023F8242084F841007A
:1018F0002068C16821F40051C160204600F064FDF9
:101900002068016921F4904101612068416921F05A
:101910002A0141612068C16841F40051C1606564D9
:10192000202084F8410084F842006563002070BDE7
:10193000F0B585B000240646009401940294039407
:1019400000682C49884253D12B48C16941F40031C9
:10195000C161C16901F400310491816941F0040160
:1019600081618069254D00F00400049004200090FE
:10197000022001900320039069462846FEF772FE7C
:101980000820CDE90004694628460294FEF76AFE65
:101990001C4D1B488027C5E90004C5E902472C619E
:1019A0006C61AC612846EC61FEF7F6FD08B1FEF70C
:1019B000D8FCF5636E62134D11484435143001C5EF
:1019C000102091C50F4845F8104944306C61AC6156
:1019D000EC61FEF7E1FD08B1FEF7C3FCB563002240
:1019E000022126206E62FEF79FFF2620FEF78EFF63
:1019F00005B0F0BD00440040001002400008014066
:101A00006C0002404801002090F84230202B01D0A9
:101A10000220704721B11AB10023036300F030BDEA
:101A2000012070477047704770B5044690F8410038
:101A3000202801D0022070BD49B342B32162A284A4
:101A4000E28400206064212384F84130A56B114BAF
:101A5000AB62A56B104BEB62A56B104B2B63A36BBA
:101A60005863256813462A1DA06BFEF7C3FD216845
:101A70006FF0400008602068143050E8001F41F00B
:101A8000800140E80012002AF5D1002070BD01203D
:101A900070BD000051220008932200086321000855
:101AA00070477047FEE700000D4808B5416941F0F6
:101AB000010141614069002200F0010000901146DF
:101AC0001020FEF731FF1020FEF720FF0022114604
:101AD0001120FEF729FFBDE808401120FEF716BFD0
:101AE000001002402DE9F04385B000242D480094F9
:101AF000019402940394816941F01001816181692C
:101B000001F010010491816941F020018161816936
:101B100001F020010491816941F004018161816932
:101B200001F004010491816941F00801816180693B
:101B3000DFF8748000F0080041F203650490002291
:101B400029464046FEF77EFEDFF860904FF40047DE
:101B5000002239464846FEF775FE0095022601250B
:101B60000396CDE9015469464046FEF77BFD280304
:101B70008DE8310069464846FEF774FD00970396EC
:101B8000CDE9015469464846FEF76CFD4FF4787084
:101B9000CDE90004694648460294FEF763FD05B0AE
:101BA000BDE8F0830010024000080140000C014035
:101BB00010B592B000240F941C2168461094FEF7D3
:101BC00025FB202107A8FEF721FB254823490160BA
:101BD0004721C0E9011440F2E731C0E90314446130
:101BE0008461FFF7CEFB08B1FEF7BBFB0F940FA992
:101BF0001B481094FFF776F908B1FEF7B2FB60209E
:101C000000904FF4FA70CDE9010403940494059414
:101C10000022694612480694FFF74DFB08B1FEF713
:101C2000A0FB0C2269460E48FFF745FB08B1FEF702
:101C300098FB0794089409944FF400500A94CDE956
:101C40000B4007A906480E94FFF722F908B1FEF7EA
:101C500088FB0348FFF7F8FA12B010BD002C0140D2
:101C60002800002010B586B0002417480094019485
:101C70000294039404944FF080410594016047213D
:101C8000C0E9011440F2E731C0E903148021816109
:101C9000FFF75CF908B1FEF764FB4FF48050009049
:101CA00069460948FFF7C8F908B1FEF75AFB0494E2
:101CB00004A905480594FFF715F9002801D0FEF79F
:101CC00050FB06B010BD00007000002010B58AB0B7
:101CD000002407941C2168460894FEF797FA1B48D5
:101CE0001949016040F2CF21C0E9011440F2CF71DF
:101CF000C0E9031480218161FFF743FB08B1FEF7BF
:101D000030FB079407A911480894FFF7EBF808B1D6
:101D1000FEF727FB6020CDE900040294002269460B
:101D20000A480494FFF7C7FA08B1FEF71AFB042229
:101D300069460648FFF7BFFA08B1FEF712FB0348F1
:101D4000FFF782FA0AB010BD00040040B80000207E
:101D500010B5114C0F480C2120604FF416506060F4
:101D60000020A060E060C4E90401A061E0612046B9
:101D7000FFF7ACFD08B1FEF7F4FA2068C16841F046
:101D80001001C160BDE81040032204490248FFF77A
:101D90003BBE000000440040000100200300002082
:101DA000FEE7FEE77047000010B5064C0022022156
:101DB0002046FEF747FD20460122BDE810401146AF
:101DC000FEF740BD0008014010B5064C012202217B
:101DD0002046FEF737FD20460022BDE810400121D5
:101DE000FEF730BD00080140704700000149096856
:101DF00048637047B800002001490968886370474C
:101E0000B800002070B5104D4FF4004401280AD0EE
:101E1000012221462846FEF715FDBDE87040042149
:101E20000A48FFF74BBB00210848FFF7F9FA0022E8
:101E300021462846FEF706FDBDE8704000224FF41B
:101E400000710348FEF7FEBC000C01402800002092
:101E50000008014070B5104C4FF4806501280AD08D
:101E6000012229462046FEF7EDFCBDE87040042122
:101E70000A48FFF723BB0C210848FFF7D1FA0022DC
:101E800029462046FEF7DEFC2046BDE870400122D0
:101E90001103FEF7D7BC0000000801402800002015
:101EA000FEF7DCBC30B58FB028216846FEF7AEF9EE
:101EB00014210AA8FEF7AAF901210804CDE90010AF
:101EC0000024029402250491CDE907504FF4E0105C
:101ED00009906846FEF736FE08B172B6FEE70F209D
:101EE000CDE90A054FF48060CDE90C4002210AA833
:101EF0000E94FEF74BFD002801D072B6FEE70FB03E
:101F000030BD70470148FFF706B90000700000209F
:101F1000F0B50268194B1A4C1A4D4FF080479842A1
:101F200005D0B84203D0A04201D0A84203D122F08C
:101F300070064A683243984205D0B84203D0A042A6
:101F400001D0A84203D122F44074CA6822434C69EC
:101F500022F08002224302608A68C2620A688262BA
:101F6000984201D109690163012141610169C907F1
:101F700003D0016921F001010161F0BD002C014095
:101F8000000400400008004010B501F01F030121CB
:101F9000046A99408C430462016A9A4011430162C9
:101FA00010BD10B5846842EA032224F47F440A433A
:101FB0002243826010BD826822F070020A4342F020
:101FC000070181607047000030B5036A026A22F0A1
:101FD000010202624268846924F073050C682C4394
:101FE00023F002058B682B430A4DA8420BD123F046
:101FF0000805CB6822F440722B434D6923F004039B
:1020000015438A692A4342608461496841630362D7
:1020100030BD0000002C014030B5026A036A23F095
:1020200010030362436884690D6824F4E64444EABB
:1020300005248D6822F0200242EA05120B4DA842C9
:102040000ED1CD6822F0800242EA05124D6923F4D8
:10205000406343EA85038D6922F0400243EA850329
:102060004360846149688163026230BD002C014095
:1020700030B5036A026A22F4807202624268C4695F
:1020800023F4007324F073050C682C438D6843EA35
:1020900005230C4DA8420ED1CD6823F4006343EA1A
:1020A00005234D6922F4405242EA05128D6923F45A
:1020B000806342EA05124260C4614968C1630362F9
:1020C00030BD0000002C014030B5046A026A22F4E1
:1020D000805202624268C3690D6823F4E64343EA12
:1020E00005238D6824F4005444EA0534064DA842C3
:1020F00004D14D6922F4804242EA85124260C361F4
:1021000049680164046230BD002C014010B5036AC7
:10211000046A24F001040462846924F0F00444EAAF
:10212000021423F00A020A438461026210BD10B552
:10213000036A046A24F010040462846923F0A00393
:1021400024F4704444EA023243EA011182610162DC
:1021500010BD10B5406A0021C185C184FFF77EFA29
:1021600010BD70B5446A2068406994F84110C0F30E
:10217000C0100025212904D118B1E584204600F0C3
:10218000B4F82068406994F84210C0F38010222906
:1021900004D118B1E585204600F080F8606C40F06D
:1021A000100060642046FFF759FA70BD10B5014673
:1021B000406A096809684FF0000289062ED4C2857A
:1021C00001680C3151E8003F23F4807341E800348A
:1021D000002CF5D10168143151E8003F23F00103D0
:1021E00041E80034002CF5D10168143151E8003F7A
:1021F00023F0400341E80034002CF5D1202180F881
:102200004210016B012909D101680C3151E8003FEE
:1022100023F0100341E80034002CF5D14263016B38
:10222000012902D0FFF7FEFB10BD818DFFF7DDF91C
:1022300010BD10B5406A01214163016B012902D034
:10224000FFF7F1FB10BD818D4908FFF7CEF910BDF6
:1022500010B50146406A09680968890616D400214C
:10226000C1840168143151E8002F22F0800241E856
:102270000023002BF5D101680C3151E8002F42F00A
:10228000400241E80023002BF5D110BDFFF708FC08
:1022900010BD10B5406AFFF704FC10BD01680C3199
:1022A00051E8002F22F4907241E80023002BF5D171
:1022B0000168143151E8002F22F0010241E80023A7
:1022C000002BF5D1016B012909D101680C3151E8CE
:1022D000002F22F0100241E80023002BF5D120212D
:1022E00080F8421000210163704701680C3151E809
:1022F000002F22F0C00241E80023002BF5D120215D
:1023000080F84110704708B590F84210222901D09A
:10231000022008BD82684FF480539A4201D10169BE
:1023200021B1816A9A421BD04AB10AE00268816AEF
:102330005268C2F308020A80816A891C08E00269B7
:1023400072B10268526802F07F020A70816A491C09
:102350008162C18D491E0904090CC18503D01BE0AF
:1023600002685268F1E70168CA6822F02002CA6078
:102370000168CA6822F48072CA6001684A6922F062
:1023800001024A61202180F8421000214163026B62
:10239000012A03D0FFF746FB002008BD0163016856
:1023A0000C3151E8002F22F0100241E80023002BED
:1023B000F5D101680A68D20602D50A684968009119
:1023C000818DFFF712F9E7E770B5044600680169EF
:1023D000E26821F44051114301612169A06808437A
:1023E000616908432168CA6841F20C639A43024359
:1023F000CA6020684169A26921F4407111434161BA
:102400001E492068884202D1FEF766FB01E0FEF714
:1024100053FB00EBC00101EB0012606864218000F7
:10242000B2FBF0F3B3FBF1F36FF018067343B2FBAA
:10243000F0F5B2FBF0F605EB8305322303EB05154F
:10244000B5FBF1F5B6FBF1F605F0F00505EB061569
:10245000B2FBF0F6B2FBF0F0B0FBF1F06FF0180257
:10246000504306EB800003EB0010B0FBF1F0216855
:1024700000F00F002844886070BD00000038014063
:1024800038B58162044682850020134660642222AA
:1024900084F84220E56B1B4AAA62E56B1A4AEA629D
:1024A000E56B1A4A2A63E26B50630A462168E06BC7
:1024B000091DFEF79FF820680168406800902069B8
:1024C00048B120680C3050E8001F41F4807140E8AA
:1024D0000012002AF5D12068143050E8001F41F0A6
:1024E000010140E80012002AF5D12068143050E8BC
:1024F000001F41F0400140E80012002AF5D1002001
:1025000038BD0000AD210008332200086321000817
:102510000D4808B500680168C1F3001179B1016880
:10252000406800900848FFF761F808480068406874
:102530000749C0F103000870064901200870BDE892
:1025400008400148FFF78CB8000100204801002036
:102550000000002002000020FEE70907090E002805
:1025600004DB00F1E02080F80014704700F00F0059
:1025700000F1E02080F8141D70470000FEF776F9A6
:10258000FFF790FCFFF7AEFAFFF78EFAFFF710FBAC
:10259000FFF768FBFFF79AFBFFF7DAFB1148FEF73E
:1025A0001FFD00211048FEF73BFF04210E48FEF7F7
:1025B00037FF00F025F80D4E0D4C0025307801282E
:1025C0000AD1207840B90B48FDF7B6FE257035706A
:1025D00021780948FDF7F8FD032207490748FFF76E
:1025E00013FAEBE770000020B80000200200002082
:1025F000000000201C00002003000020000100203B
:1026000010B50B4800244460047044700120FFF7AB
:10261000F9FB0120FFF71EFC3220FFF7EDFB6420E1
:10262000FFF7E4FBFFF7C0FB0248047010BD000099
:10263000200000201C00002070B52F4C606832285C
:1026400005D10020FFF7DEFB0020FFF703FC6068E8
:10265000B0F5FA6F20D1294801250078012806D06D
:10266000022806D0032809D004280AD132E03220FB
:1026700005E07520FFF7C0FB657002E0B820FFF7AA
:10268000BBFB1F48082101704570092181701D485E
:1026900001781B48FDF740FE60684FF47A65A84258
:1026A0000FD1607801280AD09620FFF79FFB022007
:1026B00020706068A84204D1607801281BD1FFF720
:1026C00083FB6068A0F50C51283907D16078012898
:1026D00002D003E0FA20D2E7FFF766FB6068A0F5BE
:1026E0005851B03907D16078012804D19620FFF7FE
:1026F0007DFB0320207070BD200000201C00002006
:102700000600002001000020010202030405060764
:1027100008090A0B0C0D0E0F10100000000000003D
:10272000000001020304060708090000000001027E
:1027300003040000542700080000002028000000C7
:10274000280100087C270008280000200808000055
:102750004401000800030000000000000000000029
:1027600001000000100000000000000000127A00CC
:0C2770000000000000000000000000005D
:04000005080000ED02
:00000001FF
